{
  "address": "0x5711Fd2d656942895763ac2FC5824607Ef6b5C92",
  "abi": [
    {
      "inputs": [
        {
          "internalType": "address",
          "name": "_entryPoint",
          "type": "address"
        }
      ],
      "stateMutability": "nonpayable",
      "type": "constructor"
    },
    {
      "inputs": [
        {
          "internalType": "bytes",
          "name": "result",
          "type": "bytes"
        }
      ],
      "name": "QueryResult",
      "type": "error"
    },
    {
      "anonymous": false,
      "inputs": [
        {
          "indexed": false,
          "internalType": "address",
          "name": "owner",
          "type": "address"
        }
      ],
      "name": "AddedOwner",
      "type": "event"
    },
    {
      "anonymous": false,
      "inputs": [
        {
          "indexed": true,
          "internalType": "bytes32",
          "name": "approvedHash",
          "type": "bytes32"
        },
        {
          "indexed": true,
          "internalType": "address",
          "name": "owner",
          "type": "address"
        }
      ],
      "name": "ApproveHash",
      "type": "event"
    },
    {
      "anonymous": false,
      "inputs": [
        {
          "indexed": false,
          "internalType": "address",
          "name": "handler",
          "type": "address"
        }
      ],
      "name": "ChangedFallbackHandler",
      "type": "event"
    },
    {
      "anonymous": false,
      "inputs": [
        {
          "indexed": false,
          "internalType": "address",
          "name": "guard",
          "type": "address"
        }
      ],
      "name": "ChangedGuard",
      "type": "event"
    },
    {
      "anonymous": false,
      "inputs": [
        {
          "indexed": false,
          "internalType": "uint256",
          "name": "threshold",
          "type": "uint256"
        }
      ],
      "name": "ChangedThreshold",
      "type": "event"
    },
    {
      "anonymous": false,
      "inputs": [
        {
          "indexed": false,
          "internalType": "address",
          "name": "module",
          "type": "address"
        }
      ],
      "name": "DisabledModule",
      "type": "event"
    },
    {
      "anonymous": false,
      "inputs": [
        {
          "indexed": false,
          "internalType": "address",
          "name": "module",
          "type": "address"
        }
      ],
      "name": "EnabledModule",
      "type": "event"
    },
    {
      "anonymous": false,
      "inputs": [
        {
          "indexed": false,
          "internalType": "bytes32",
          "name": "txHash",
          "type": "bytes32"
        },
        {
          "indexed": false,
          "internalType": "uint256",
          "name": "payment",
          "type": "uint256"
        }
      ],
      "name": "ExecutionFailure",
      "type": "event"
    },
    {
      "anonymous": false,
      "inputs": [
        {
          "indexed": true,
          "internalType": "address",
          "name": "module",
          "type": "address"
        }
      ],
      "name": "ExecutionFromModuleFailure",
      "type": "event"
    },
    {
      "anonymous": false,
      "inputs": [
        {
          "indexed": true,
          "internalType": "address",
          "name": "module",
          "type": "address"
        }
      ],
      "name": "ExecutionFromModuleSuccess",
      "type": "event"
    },
    {
      "anonymous": false,
      "inputs": [
        {
          "indexed": false,
          "internalType": "bytes32",
          "name": "txHash",
          "type": "bytes32"
        },
        {
          "indexed": false,
          "internalType": "uint256",
          "name": "payment",
          "type": "uint256"
        }
      ],
      "name": "ExecutionSuccess",
      "type": "event"
    },
    {
      "anonymous": false,
      "inputs": [
        {
          "indexed": false,
          "internalType": "address",
          "name": "owner",
          "type": "address"
        }
      ],
      "name": "RemovedOwner",
      "type": "event"
    },
    {
      "anonymous": false,
      "inputs": [
        {
          "indexed": true,
          "internalType": "address",
          "name": "sender",
          "type": "address"
        },
        {
          "indexed": false,
          "internalType": "uint256",
          "name": "value",
          "type": "uint256"
        }
      ],
      "name": "SafeReceived",
      "type": "event"
    },
    {
      "anonymous": false,
      "inputs": [
        {
          "indexed": true,
          "internalType": "address",
          "name": "initiator",
          "type": "address"
        },
        {
          "indexed": false,
          "internalType": "address[]",
          "name": "owners",
          "type": "address[]"
        },
        {
          "indexed": false,
          "internalType": "uint256",
          "name": "threshold",
          "type": "uint256"
        },
        {
          "indexed": false,
          "internalType": "address",
          "name": "initializer",
          "type": "address"
        },
        {
          "indexed": false,
          "internalType": "address",
          "name": "fallbackHandler",
          "type": "address"
        }
      ],
      "name": "SafeSetup",
      "type": "event"
    },
    {
      "anonymous": false,
      "inputs": [
        {
          "indexed": true,
          "internalType": "bytes32",
          "name": "msgHash",
          "type": "bytes32"
        }
      ],
      "name": "SignMsg",
      "type": "event"
    },
    {
      "stateMutability": "nonpayable",
      "type": "fallback"
    },
    {
      "inputs": [],
      "name": "VERSION",
      "outputs": [
        {
          "internalType": "string",
          "name": "",
          "type": "string"
        }
      ],
      "stateMutability": "view",
      "type": "function"
    },
    {
      "inputs": [
        {
          "internalType": "address",
          "name": "owner",
          "type": "address"
        },
        {
          "internalType": "uint256",
          "name": "_threshold",
          "type": "uint256"
        }
      ],
      "name": "addOwnerWithThreshold",
      "outputs": [],
      "stateMutability": "nonpayable",
      "type": "function"
    },
    {
      "inputs": [
        {
          "internalType": "bytes32",
          "name": "hashToApprove",
          "type": "bytes32"
        }
      ],
      "name": "approveHash",
      "outputs": [],
      "stateMutability": "nonpayable",
      "type": "function"
    },
    {
      "inputs": [
        {
          "internalType": "address",
          "name": "",
          "type": "address"
        },
        {
          "internalType": "bytes32",
          "name": "",
          "type": "bytes32"
        }
      ],
      "name": "approvedHashes",
      "outputs": [
        {
          "internalType": "uint256",
          "name": "",
          "type": "uint256"
        }
      ],
      "stateMutability": "view",
      "type": "function"
    },
    {
      "inputs": [
        {
          "internalType": "uint256",
          "name": "_threshold",
          "type": "uint256"
        }
      ],
      "name": "changeThreshold",
      "outputs": [],
      "stateMutability": "nonpayable",
      "type": "function"
    },
    {
      "inputs": [
        {
          "internalType": "bytes32",
          "name": "dataHash",
          "type": "bytes32"
        },
        {
          "internalType": "bytes",
          "name": "data",
          "type": "bytes"
        },
        {
          "internalType": "bytes",
          "name": "signatures",
          "type": "bytes"
        },
        {
          "internalType": "uint256",
          "name": "requiredSignatures",
          "type": "uint256"
        }
      ],
      "name": "checkNSignatures",
      "outputs": [],
      "stateMutability": "view",
      "type": "function"
    },
    {
      "inputs": [
        {
          "internalType": "bytes32",
          "name": "dataHash",
          "type": "bytes32"
        },
        {
          "internalType": "bytes",
          "name": "data",
          "type": "bytes"
        },
        {
          "internalType": "bytes",
          "name": "signatures",
          "type": "bytes"
        }
      ],
      "name": "checkSignatures",
      "outputs": [],
      "stateMutability": "view",
      "type": "function"
    },
    {
      "inputs": [
        {
          "internalType": "address",
          "name": "prevModule",
          "type": "address"
        },
        {
          "internalType": "address",
          "name": "module",
          "type": "address"
        }
      ],
      "name": "disableModule",
      "outputs": [],
      "stateMutability": "nonpayable",
      "type": "function"
    },
    {
      "inputs": [],
      "name": "domainSeparator",
      "outputs": [
        {
          "internalType": "bytes32",
          "name": "",
          "type": "bytes32"
        }
      ],
      "stateMutability": "view",
      "type": "function"
    },
    {
      "inputs": [
        {
          "internalType": "address",
          "name": "module",
          "type": "address"
        }
      ],
      "name": "enableModule",
      "outputs": [],
      "stateMutability": "nonpayable",
      "type": "function"
    },
    {
      "inputs": [
        {
          "internalType": "address",
          "name": "to",
          "type": "address"
        },
        {
          "internalType": "uint256",
          "name": "value",
          "type": "uint256"
        },
        {
          "internalType": "bytes",
          "name": "data",
          "type": "bytes"
        },
        {
          "internalType": "enum Enum.Operation",
          "name": "operation",
          "type": "uint8"
        },
        {
          "internalType": "uint256",
          "name": "safeTxGas",
          "type": "uint256"
        },
        {
          "internalType": "uint256",
          "name": "baseGas",
          "type": "uint256"
        },
        {
          "internalType": "uint256",
          "name": "gasPrice",
          "type": "uint256"
        },
        {
          "internalType": "address",
          "name": "gasToken",
          "type": "address"
        },
        {
          "internalType": "address",
          "name": "refundReceiver",
          "type": "address"
        },
        {
          "internalType": "uint256",
          "name": "_nonce",
          "type": "uint256"
        }
      ],
      "name": "encodeTransactionData",
      "outputs": [
        {
          "internalType": "bytes",
          "name": "",
          "type": "bytes"
        }
      ],
      "stateMutability": "view",
      "type": "function"
    },
    {
      "inputs": [],
      "name": "entryPoint",
      "outputs": [
        {
          "internalType": "address",
          "name": "",
          "type": "address"
        }
      ],
      "stateMutability": "view",
      "type": "function"
    },
    {
      "inputs": [
        {
          "internalType": "address",
          "name": "to",
          "type": "address"
        },
        {
          "internalType": "uint256",
          "name": "value",
          "type": "uint256"
        },
        {
          "internalType": "bytes",
          "name": "data",
          "type": "bytes"
        },
        {
          "internalType": "enum Enum.Operation",
          "name": "operation",
          "type": "uint8"
        },
        {
          "internalType": "uint256",
          "name": "safeTxGas",
          "type": "uint256"
        },
        {
          "internalType": "uint256",
          "name": "baseGas",
          "type": "uint256"
        },
        {
          "internalType": "uint256",
          "name": "gasPrice",
          "type": "uint256"
        },
        {
          "internalType": "address",
          "name": "gasToken",
          "type": "address"
        },
        {
          "internalType": "address payable",
          "name": "refundReceiver",
          "type": "address"
        },
        {
          "internalType": "bytes",
          "name": "signatures",
          "type": "bytes"
        }
      ],
      "name": "execTransaction",
      "outputs": [
        {
          "internalType": "bool",
          "name": "success",
          "type": "bool"
        }
      ],
      "stateMutability": "payable",
      "type": "function"
    },
    {
      "inputs": [
        {
          "internalType": "address",
          "name": "to",
          "type": "address"
        },
        {
          "internalType": "uint256",
          "name": "value",
          "type": "uint256"
        },
        {
          "internalType": "bytes",
          "name": "data",
          "type": "bytes"
        },
        {
          "internalType": "enum Enum.Operation",
          "name": "operation",
          "type": "uint8"
        }
      ],
      "name": "execTransactionFromModule",
      "outputs": [
        {
          "internalType": "bool",
          "name": "success",
          "type": "bool"
        }
      ],
      "stateMutability": "nonpayable",
      "type": "function"
    },
    {
      "inputs": [
        {
          "internalType": "address",
          "name": "to",
          "type": "address"
        },
        {
          "internalType": "uint256",
          "name": "value",
          "type": "uint256"
        },
        {
          "internalType": "bytes",
          "name": "data",
          "type": "bytes"
        },
        {
          "internalType": "enum Enum.Operation",
          "name": "operation",
          "type": "uint8"
        }
      ],
      "name": "execTransactionFromModuleReturnData",
      "outputs": [
        {
          "internalType": "bool",
          "name": "success",
          "type": "bool"
        },
        {
          "internalType": "bytes",
          "name": "returnData",
          "type": "bytes"
        }
      ],
      "stateMutability": "nonpayable",
      "type": "function"
    },
    {
      "inputs": [
        {
          "internalType": "address",
          "name": "to",
          "type": "address"
        },
        {
          "internalType": "uint256",
          "name": "value",
          "type": "uint256"
        },
        {
          "internalType": "bytes",
          "name": "data",
          "type": "bytes"
        },
        {
          "internalType": "enum Enum.Operation",
          "name": "operation",
          "type": "uint8"
        }
      ],
      "name": "executeAndRevert",
      "outputs": [],
      "stateMutability": "nonpayable",
      "type": "function"
    },
    {
      "inputs": [],
      "name": "getChainId",
      "outputs": [
        {
          "internalType": "uint256",
          "name": "",
          "type": "uint256"
        }
      ],
      "stateMutability": "view",
      "type": "function"
    },
    {
      "inputs": [
        {
          "internalType": "address",
          "name": "start",
          "type": "address"
        },
        {
          "internalType": "uint256",
          "name": "pageSize",
          "type": "uint256"
        }
      ],
      "name": "getModulesPaginated",
      "outputs": [
        {
          "internalType": "address[]",
          "name": "array",
          "type": "address[]"
        },
        {
          "internalType": "address",
          "name": "next",
          "type": "address"
        }
      ],
      "stateMutability": "view",
      "type": "function"
    },
    {
      "inputs": [],
      "name": "getNonce",
      "outputs": [
        {
          "internalType": "uint256",
          "name": "",
          "type": "uint256"
        }
      ],
      "stateMutability": "view",
      "type": "function"
    },
    {
      "inputs": [],
      "name": "getOwners",
      "outputs": [
        {
          "internalType": "address[]",
          "name": "",
          "type": "address[]"
        }
      ],
      "stateMutability": "view",
      "type": "function"
    },
    {
      "inputs": [
        {
          "internalType": "uint256",
          "name": "offset",
          "type": "uint256"
        },
        {
          "internalType": "uint256",
          "name": "length",
          "type": "uint256"
        }
      ],
      "name": "getStorageAt",
      "outputs": [
        {
          "internalType": "bytes",
          "name": "",
          "type": "bytes"
        }
      ],
      "stateMutability": "view",
      "type": "function"
    },
    {
      "inputs": [],
      "name": "getThreshold",
      "outputs": [
        {
          "internalType": "uint256",
          "name": "",
          "type": "uint256"
        }
      ],
      "stateMutability": "view",
      "type": "function"
    },
    {
      "inputs": [
        {
          "internalType": "address",
          "name": "to",
          "type": "address"
        },
        {
          "internalType": "uint256",
          "name": "value",
          "type": "uint256"
        },
        {
          "internalType": "bytes",
          "name": "data",
          "type": "bytes"
        },
        {
          "internalType": "enum Enum.Operation",
          "name": "operation",
          "type": "uint8"
        },
        {
          "internalType": "uint256",
          "name": "safeTxGas",
          "type": "uint256"
        },
        {
          "internalType": "uint256",
          "name": "baseGas",
          "type": "uint256"
        },
        {
          "internalType": "uint256",
          "name": "gasPrice",
          "type": "uint256"
        },
        {
          "internalType": "address",
          "name": "gasToken",
          "type": "address"
        },
        {
          "internalType": "address",
          "name": "refundReceiver",
          "type": "address"
        },
        {
          "internalType": "uint256",
          "name": "_nonce",
          "type": "uint256"
        }
      ],
      "name": "getTransactionHash",
      "outputs": [
        {
          "internalType": "bytes32",
          "name": "",
          "type": "bytes32"
        }
      ],
      "stateMutability": "view",
      "type": "function"
    },
    {
      "inputs": [
        {
          "internalType": "address",
          "name": "module",
          "type": "address"
        }
      ],
      "name": "isModuleEnabled",
      "outputs": [
        {
          "internalType": "bool",
          "name": "",
          "type": "bool"
        }
      ],
      "stateMutability": "view",
      "type": "function"
    },
    {
      "inputs": [
        {
          "internalType": "address",
          "name": "owner",
          "type": "address"
        }
      ],
      "name": "isOwner",
      "outputs": [
        {
          "internalType": "bool",
          "name": "",
          "type": "bool"
        }
      ],
      "stateMutability": "view",
      "type": "function"
    },
    {
      "inputs": [
        {
          "internalType": "bytes32",
          "name": "_hash",
          "type": "bytes32"
        },
        {
          "internalType": "bytes",
          "name": "_signature",
          "type": "bytes"
        }
      ],
      "name": "isValidSignature",
      "outputs": [
        {
          "internalType": "bytes4",
          "name": "",
          "type": "bytes4"
        }
      ],
      "stateMutability": "view",
      "type": "function"
    },
    {
      "inputs": [],
      "name": "nonce",
      "outputs": [
        {
          "internalType": "uint256",
          "name": "",
          "type": "uint256"
        }
      ],
      "stateMutability": "view",
      "type": "function"
    },
    {
      "inputs": [
        {
          "internalType": "address",
          "name": "_plugin",
          "type": "address"
        },
        {
          "internalType": "bytes",
          "name": "_data",
          "type": "bytes"
        }
      ],
      "name": "queryPlugin",
      "outputs": [],
      "stateMutability": "nonpayable",
      "type": "function"
    },
    {
      "inputs": [
        {
          "internalType": "address",
          "name": "prevOwner",
          "type": "address"
        },
        {
          "internalType": "address",
          "name": "owner",
          "type": "address"
        },
        {
          "internalType": "uint256",
          "name": "_threshold",
          "type": "uint256"
        }
      ],
      "name": "removeOwner",
      "outputs": [],
      "stateMutability": "nonpayable",
      "type": "function"
    },
    {
      "inputs": [
        {
          "internalType": "address",
          "name": "to",
          "type": "address"
        },
        {
          "internalType": "uint256",
          "name": "value",
          "type": "uint256"
        },
        {
          "internalType": "bytes",
          "name": "data",
          "type": "bytes"
        },
        {
          "internalType": "enum Enum.Operation",
          "name": "operation",
          "type": "uint8"
        }
      ],
      "name": "requiredTxGas",
      "outputs": [
        {
          "internalType": "uint256",
          "name": "",
          "type": "uint256"
        }
      ],
      "stateMutability": "nonpayable",
      "type": "function"
    },
    {
      "inputs": [
        {
          "internalType": "address",
          "name": "handler",
          "type": "address"
        }
      ],
      "name": "setFallbackHandler",
      "outputs": [],
      "stateMutability": "nonpayable",
      "type": "function"
    },
    {
      "inputs": [
        {
          "internalType": "address",
          "name": "guard",
          "type": "address"
        }
      ],
      "name": "setGuard",
      "outputs": [],
      "stateMutability": "nonpayable",
      "type": "function"
    },
    {
      "inputs": [
        {
          "internalType": "address[]",
          "name": "_owners",
          "type": "address[]"
        },
        {
          "internalType": "uint256",
          "name": "_threshold",
          "type": "uint256"
        },
        {
          "internalType": "address",
          "name": "to",
          "type": "address"
        },
        {
          "internalType": "bytes",
          "name": "data",
          "type": "bytes"
        },
        {
          "internalType": "address",
          "name": "fallbackHandler",
          "type": "address"
        },
        {
          "internalType": "address",
          "name": "paymentToken",
          "type": "address"
        },
        {
          "internalType": "uint256",
          "name": "payment",
          "type": "uint256"
        },
        {
          "internalType": "address payable",
          "name": "paymentReceiver",
          "type": "address"
        }
      ],
      "name": "setup",
      "outputs": [],
      "stateMutability": "nonpayable",
      "type": "function"
    },
    {
      "inputs": [
        {
          "internalType": "bytes32",
          "name": "",
          "type": "bytes32"
        }
      ],
      "name": "signedMessages",
      "outputs": [
        {
          "internalType": "uint256",
          "name": "",
          "type": "uint256"
        }
      ],
      "stateMutability": "view",
      "type": "function"
    },
    {
      "inputs": [
        {
          "internalType": "address",
          "name": "targetContract",
          "type": "address"
        },
        {
          "internalType": "bytes",
          "name": "calldataPayload",
          "type": "bytes"
        }
      ],
      "name": "simulateAndRevert",
      "outputs": [],
      "stateMutability": "nonpayable",
      "type": "function"
    },
    {
      "inputs": [
        {
          "internalType": "address",
          "name": "prevOwner",
          "type": "address"
        },
        {
          "internalType": "address",
          "name": "oldOwner",
          "type": "address"
        },
        {
          "internalType": "address",
          "name": "newOwner",
          "type": "address"
        }
      ],
      "name": "swapOwner",
      "outputs": [],
      "stateMutability": "nonpayable",
      "type": "function"
    },
    {
      "inputs": [
        {
          "components": [
            {
              "internalType": "address",
              "name": "sender",
              "type": "address"
            },
            {
              "internalType": "uint256",
              "name": "nonce",
              "type": "uint256"
            },
            {
              "internalType": "bytes",
              "name": "initCode",
              "type": "bytes"
            },
            {
              "internalType": "bytes",
              "name": "callData",
              "type": "bytes"
            },
            {
              "internalType": "uint256",
              "name": "callGasLimit",
              "type": "uint256"
            },
            {
              "internalType": "uint256",
              "name": "verificationGasLimit",
              "type": "uint256"
            },
            {
              "internalType": "uint256",
              "name": "preVerificationGas",
              "type": "uint256"
            },
            {
              "internalType": "uint256",
              "name": "maxFeePerGas",
              "type": "uint256"
            },
            {
              "internalType": "uint256",
              "name": "maxPriorityFeePerGas",
              "type": "uint256"
            },
            {
              "internalType": "bytes",
              "name": "paymasterAndData",
              "type": "bytes"
            },
            {
              "internalType": "bytes",
              "name": "signature",
              "type": "bytes"
            }
          ],
          "internalType": "struct UserOperation",
          "name": "userOp",
          "type": "tuple"
        },
        {
          "internalType": "bytes32",
          "name": "userOpHash",
          "type": "bytes32"
        },
        {
          "internalType": "uint256",
          "name": "missingAccountFunds",
          "type": "uint256"
        }
      ],
      "name": "validateUserOp",
      "outputs": [
        {
          "internalType": "uint256",
          "name": "validationData",
          "type": "uint256"
        }
      ],
      "stateMutability": "nonpayable",
      "type": "function"
    },
    {
      "stateMutability": "payable",
      "type": "receive"
    }
  ],
  "transactionHash": "0x64899b38f7f31adad6ba780aa49a9b312eb4c91293f7c19ac9185039e9ecddfe",
  "args": [
    "0x5FF137D4b0FDCD49DcA30c7CF57E578a026d2789"
  ],
  "numDeployments": 2,
  "solcInputHash": "048aa03d2cd650195aab6a57c698fc00",
  "bytecode": "0x6101606040523480156200001257600080fd5b506040516200569438038062005694833981016040819052620000359162000147565b60408051808201825260118152704d6f6f6e4b6579506c7567696e5361666560781b6020808301918252835180850190945260058452640312e302e360dc1b9084015260016004558151902060e08190527f06c015bd22b4c69690933c1058878ebdfef31f9aaae40bbe86d8a09fe1b2972c6101008190524660a0529192917f8b73c3c69bb8fe3d512ecc4cf759cc79239f7b179b0ffacaa9a75d522b39400f620001258184846040805160208101859052908101839052606081018290524660808201523060a082015260009060c0016040516020818303038152906040528051906020012090509392505050565b6080523060c05261012052505050506001600160a01b03166101405262000179565b6000602082840312156200015a57600080fd5b81516001600160a01b03811681146200017257600080fd5b9392505050565b60805160a05160c05160e0516101005161012051610140516154ab620001e9600039600081816105f20152818161130101528181611f7701526125580152600061412d0152600061417c01526000614157015260006140b0015260006140da0152600061410401526154ab6000f3fe60806040526004361061026e5760003560e01c8063affed0e011610153578063e009cfde116100cb578063f08a03231161007f578063f698da2511610064578063f698da25146107f1578063f8dc5dd914610858578063ffa1ad7414610878576102aa565b8063f08a0323146107b1578063f333df55146107d1576102aa565b8063e318b52b116100b0578063e318b52b1461075c578063e75235b81461077c578063e86637db14610791576102aa565b8063e009cfde1461071c578063e19a9dd91461073c576102aa565b8063c4ca3a9c11610122578063d087d28811610107578063d087d288146106c7578063d4d9bdcd146106dc578063d8d11f78146106fc576102aa565b8063c4ca3a9c14610679578063cc2f845214610699576102aa565b8063affed0e0146105ca578063b0d691fe146105e0578063b4faba0914610639578063b63e800d14610659576102aa565b80635624b25b116101e65780636a761202116101b5578063934f3a111161019a578063934f3a1114610568578063940d3c6014610588578063a0e67e2b146105a8576102aa565b80636a7612021461051d5780637d83297414610530576102aa565b80635624b25b146104835780635ae6bd37146104b0578063610b5925146104dd578063694e80c3146104fd576102aa565b80632f54bf6e1161023d5780633a871cdd116102225780633a871cdd14610415578063468721a7146104355780635229073f14610455576102aa565b80632f54bf6e146103d85780633408e470146103f8576102aa565b80630d582f131461031057806312fb68e0146103325780631626ba7e146103525780632d9ad53d146103a8576102aa565b366102aa5760405134815233907f3d0ce9bfc3ed7d6862dbb28b2dea94561fe714a1b4d019aa8af39730d1ad7c3d9060200160405180910390a2005b3480156102b657600080fd5b507f6c9a6c4a39284e37ed1cf53d337577d14212a4870fb976a4366c693b939918d58054806102e157005b36600080373360601b365260008060143601600080855af190503d6000803e8061030a573d6000fd5b503d6000f35b34801561031c57600080fd5b5061033061032b3660046143de565b6108c1565b005b34801561033e57600080fd5b5061033061034d3660046144e4565b610b17565b34801561035e57600080fd5b5061037261036d366004614559565b61116c565b6040517fffffffff0000000000000000000000000000000000000000000000000000000090911681526020015b60405180910390f35b3480156103b457600080fd5b506103c86103c33660046145a0565b611243565b604051901515815260200161039f565b3480156103e457600080fd5b506103c86103f33660046145a0565b611295565b34801561040457600080fd5b50465b60405190815260200161039f565b34801561042157600080fd5b506104076104303660046145bd565b6112e7565b34801561044157600080fd5b506103c8610450366004614620565b611611565b34801561046157600080fd5b50610475610470366004614620565b611727565b60405161039f9291906146ee565b34801561048f57600080fd5b506104a361049e366004614709565b61175d565b60405161039f919061472b565b3480156104bc57600080fd5b506104076104cb36600461473e565b60076020526000908152604090205481565b3480156104e957600080fd5b506103306104f83660046145a0565b6117e3565b34801561050957600080fd5b5061033061051836600461473e565b6119d5565b6103c861052b366004614799565b611ae9565b34801561053c57600080fd5b5061040761054b3660046143de565b600860209081526000928352604080842090915290825290205481565b34801561057457600080fd5b50610330610583366004614872565b611ee3565b34801561059457600080fd5b506103306105a33660046148df565b611f5f565b3480156105b457600080fd5b506105bd6120aa565b60405161039f91906149a1565b3480156105d657600080fd5b5061040760055481565b3480156105ec57600080fd5b506106147f000000000000000000000000000000000000000000000000000000000000000081565b60405173ffffffffffffffffffffffffffffffffffffffff909116815260200161039f565b34801561064557600080fd5b506103306106543660046149b4565b6121c2565b34801561066557600080fd5b506103306106743660046149ee565b6121e5565b34801561068557600080fd5b506104076106943660046148df565b612320565b3480156106a557600080fd5b506106b96106b43660046143de565b6123f2565b60405161039f929190614ae3565b3480156106d357600080fd5b50610407612520565b3480156106e857600080fd5b506103306106f736600461473e565b6125dd565b34801561070857600080fd5b50610407610717366004614b1b565b6126b1565b34801561072857600080fd5b50610330610737366004614bdc565b6126de565b34801561074857600080fd5b506103306107573660046145a0565b6128bd565b34801561076857600080fd5b50610330610777366004614c15565b61292f565b34801561078857600080fd5b50600454610407565b34801561079d57600080fd5b506104a36107ac366004614b1b565b612cbb565b3480156107bd57600080fd5b506103306107cc3660046145a0565b612e54565b3480156107dd57600080fd5b506103306107ec366004614c60565b612eca565b3480156107fd57600080fd5b5061040760007f47e79534a245952e8b16893a336b85a3d9ea9fa8c573f3d803afb92a794692184660408051602081019390935282015230606082015260800160405160208183030381529060405280519060200120905090565b34801561086457600080fd5b50610330610873366004614cb5565b612fa4565b34801561088457600080fd5b506104a36040518060400160405280600581526020017f312e332e3000000000000000000000000000000000000000000000000000000081525081565b6108c9613236565b73ffffffffffffffffffffffffffffffffffffffff821615801590610905575073ffffffffffffffffffffffffffffffffffffffff8216600114155b8015610927575073ffffffffffffffffffffffffffffffffffffffff82163014155b610992576040517f08c379a000000000000000000000000000000000000000000000000000000000815260206004820152600560248201527f475332303300000000000000000000000000000000000000000000000000000060448201526064015b60405180910390fd5b73ffffffffffffffffffffffffffffffffffffffff8281166000908152600260205260409020541615610a21576040517f08c379a000000000000000000000000000000000000000000000000000000000815260206004820152600560248201527f47533230340000000000000000000000000000000000000000000000000000006044820152606401610989565b60026020527fe90b7bceb6e7df5418fb78d8ee546e97c83a08bbccc01a0644d599ccd2a7c2e0805473ffffffffffffffffffffffffffffffffffffffff8481166000818152604081208054939094167fffffffffffffffffffffffff000000000000000000000000000000000000000093841617909355600183528354909116179091556003805491610ab383614d25565b909155505060405173ffffffffffffffffffffffffffffffffffffffff831681527f9465fa0c962cc76958e6373a993326400c1c94f8be2fe3a952adfa7f60b2ea269060200160405180910390a18060045414610b1357610b13816119d5565b5050565b610b228160416132a1565b82511015610b8c576040517f08c379a000000000000000000000000000000000000000000000000000000000815260206004820152600560248201527f47533032300000000000000000000000000000000000000000000000000000006044820152606401610989565b6000808060008060005b86811015611160576041818102890160208101516040820151919092015160ff16955090935091506000849003610e6d579193508391610bd78760416132a1565b821015610c40576040517f08c379a000000000000000000000000000000000000000000000000000000000815260206004820152600560248201527f47533032310000000000000000000000000000000000000000000000000000006044820152606401610989565b8751610c4d8360206132d6565b1115610cb5576040517f08c379a000000000000000000000000000000000000000000000000000000000815260206004820152600560248201527f47533032320000000000000000000000000000000000000000000000000000006044820152606401610989565b602082890181015189519091610cd8908390610cd29087906132d6565b906132d6565b1115610d40576040517f08c379a000000000000000000000000000000000000000000000000000000000815260206004820152600560248201527f47533032330000000000000000000000000000000000000000000000000000006044820152606401610989565b6040517f20c13b0b000000000000000000000000000000000000000000000000000000008082528a85016020019173ffffffffffffffffffffffffffffffffffffffff8916906320c13b0b90610d9c908f908690600401614d5d565b602060405180830381865afa158015610db9573d6000803e3d6000fd5b505050506040513d601f19601f82011682018060405250810190610ddd9190614d82565b7fffffffff000000000000000000000000000000000000000000000000000000001614610e66576040517f08c379a000000000000000000000000000000000000000000000000000000000815260206004820152600560248201527f47533032340000000000000000000000000000000000000000000000000000006044820152606401610989565b5050611060565b8360ff16600103610f3b5791935083913373ffffffffffffffffffffffffffffffffffffffff84161480610ed0575073ffffffffffffffffffffffffffffffffffffffff851660009081526008602090815260408083208d845290915290205415155b610f36576040517f08c379a000000000000000000000000000000000000000000000000000000000815260206004820152600560248201527f47533032350000000000000000000000000000000000000000000000000000006044820152606401610989565b611060565b601e8460ff161115611000576040517f19457468657265756d205369676e6564204d6573736167653a0a3332000000006020820152603c81018b9052600190605c0160405160208183030381529060405280519060200120600486610fa09190614dc4565b6040805160008152602081018083529390935260ff90911690820152606081018590526080810184905260a0016020604051602081039080840390855afa158015610fef573d6000803e3d6000fd5b505050602060405103519450611060565b6040805160008152602081018083528c905260ff861691810191909152606081018490526080810183905260019060a0016020604051602081039080840390855afa158015611053573d6000803e3d6000fd5b5050506020604051035194505b8573ffffffffffffffffffffffffffffffffffffffff168573ffffffffffffffffffffffffffffffffffffffff161180156110c1575073ffffffffffffffffffffffffffffffffffffffff8581166000908152600260205260409020541615155b80156110e4575073ffffffffffffffffffffffffffffffffffffffff8516600114155b61114a576040517f08c379a000000000000000000000000000000000000000000000000000000000815260206004820152600560248201527f47533032360000000000000000000000000000000000000000000000000000006044820152606401610989565b849550808061115890614d25565b915050610b96565b50505050505050505050565b6000806111c6846040517f19457468657265756d205369676e6564204d6573736167653a0a3332000000006020820152603c8101829052600090605c01604051602081830303815290604052805190602001209050919050565b905060006111d482856132f2565b90506111df81611295565b1561120f57507f1626ba7e00000000000000000000000000000000000000000000000000000000915061123d9050565b507fffffffff00000000000000000000000000000000000000000000000000000000915061123d9050565b50505b92915050565b6000600173ffffffffffffffffffffffffffffffffffffffff83161480159061123d57505073ffffffffffffffffffffffffffffffffffffffff90811660009081526001602052604090205416151590565b600073ffffffffffffffffffffffffffffffffffffffff821660011480159061123d57505073ffffffffffffffffffffffffffffffffffffffff90811660009081526002602052604090205416151590565b60003373ffffffffffffffffffffffffffffffffffffffff7f00000000000000000000000000000000000000000000000000000000000000001614611388576040517f08c379a000000000000000000000000000000000000000000000000000000000815260206004820152601c60248201527f6163636f756e743a206e6f742066726f6d20656e747279506f696e74000000006044820152606401610989565b611396610140850185614ddd565b90506041036113b1576113aa84848461330e565b905061160a565b60616113c1610140860186614ddd565b905011156116065760006113d9610140860186614ddd565b6113e891601491600091614e42565b6113f191614e6c565b60601c90506000611406610140870187614ddd565b61141591601a91601491614e42565b61141e91614eb2565b60d01c90506000611433610140880188614ddd565b61144291602091601a91614e42565b61144b91614eb2565b60d01c90506000611460610140890189614ddd565b61146f91606191602091614e42565b8080601f01602080910402602001604051908101604052809392919081815260200183838082843760009201829052509394506114b4925050506101408a018a614ddd565b6114c2916061908290614e42565b8101906114cf9190614ef8565b50905060006115857f9133ff5af252e38ceb509d9ac14c07b382979e4113d0a11b09eb6515d7eb2ab561150560208d018d6145a0565b87878a878051906020012060405160200161156a9695949392919095865273ffffffffffffffffffffffffffffffffffffffff948516602087015265ffffffffffff93841660408701529190921660608501529116608083015260a082015260c00190565b604051602081830303815290604052805190602001206134b2565b9050600061159382856132f2565b905060045460011415806115ad57506115ab81611295565b155b156115c257600197505050505050505061160a565b60006115d0888d8d8d61351b565b90506000818060200190518101906115e89190614f52565b90506115f68115898961362f565b995050505050505050505061160a565b5060015b9392505050565b60003360011480159061164857503360009081526001602052604090205473ffffffffffffffffffffffffffffffffffffffff1615155b6116ae576040517f08c379a000000000000000000000000000000000000000000000000000000000815260206004820152600560248201527f47533130340000000000000000000000000000000000000000000000000000006044820152606401610989565b6116bb858585855a613667565b905080156116f35760405133907f6895c13664aa4f67288b25d7a21d7aaa34916e355fb9b6fae0a139a9085becb890600090a261171f565b60405133907facd2c8702804128fdb0db2bb49f6d127dd0181c13fd45dbfe16de0930e2bd37590600090a25b949350505050565b6000606061173786868686611611565b915060405160203d0181016040523d81523d6000602083013e8091505094509492505050565b6060600061176c836020614f74565b67ffffffffffffffff8111156117845761178461440a565b6040519080825280601f01601f1916602001820160405280156117ae576020820181803683370190505b50905060005b838110156117db5784810154602080830284010152806117d381614d25565b9150506117b4565b509392505050565b6117eb613236565b73ffffffffffffffffffffffffffffffffffffffff811615801590611827575073ffffffffffffffffffffffffffffffffffffffff8116600114155b61188d576040517f08c379a000000000000000000000000000000000000000000000000000000000815260206004820152600560248201527f47533130310000000000000000000000000000000000000000000000000000006044820152606401610989565b73ffffffffffffffffffffffffffffffffffffffff818116600090815260016020526040902054161561191c576040517f08c379a000000000000000000000000000000000000000000000000000000000815260206004820152600560248201527f47533130320000000000000000000000000000000000000000000000000000006044820152606401610989565b600160208181527fcc69885fda6bcc1a4ace058b4a62bf5e179ea78fd58a1ccd71c22cc9b688792f805473ffffffffffffffffffffffffffffffffffffffff858116600081815260408082208054949095167fffffffffffffffffffffffff000000000000000000000000000000000000000094851617909455959095528254168417909155519182527fecdf3a3effea5783a3c4c2140e677577666428d44ed9d474a0b3a4c9943f844091015b60405180910390a150565b6119dd613236565b600354811115611a49576040517f08c379a000000000000000000000000000000000000000000000000000000000815260206004820152600560248201527f47533230310000000000000000000000000000000000000000000000000000006044820152606401610989565b6001811015611ab4576040517f08c379a000000000000000000000000000000000000000000000000000000000815260206004820152600560248201527f47533230320000000000000000000000000000000000000000000000000000006044820152606401610989565b60048190556040518181527f610f7ff2b304ae8903c3de74c60c6ab1f7d6226b3f52c5161905bb5ad4039c93906020016119ca565b6000806000611b038e8e8e8e8e8e8e8e8e8e600554612cbb565b600580549192506000611b1583614d25565b9091555050805160208201209150611b2e828286611ee3565b506000611b597f4a204f620c8c5ccdca3fd54d003badd85ba500436a431f0cbda4f558c93c34c85490565b905073ffffffffffffffffffffffffffffffffffffffff811615611bf9578073ffffffffffffffffffffffffffffffffffffffff166375f0bb528f8f8f8f8f8f8f8f8f8f8f336040518d63ffffffff1660e01b8152600401611bc69c9b9a9998979695949392919061503e565b600060405180830381600087803b158015611be057600080fd5b505af1158015611bf4573d6000803e3d6000fd5b505050505b611c25611c088a6109c46150d8565b603f611c158c6040614f74565b611c1f91906150eb565b906136ae565b611c31906101f46150d8565b5a1015611c9a576040517f08c379a000000000000000000000000000000000000000000000000000000000815260206004820152600560248201527f47533031300000000000000000000000000000000000000000000000000000006044820152606401610989565b60005a9050611d0b8f8f8f8f8080601f016020809104026020016040519081016040528093929190818152602001838380828437600081840152601f19601f820116905080830192505050505050508e8c600014611cf8578e613667565b6109c45a611d069190615126565b613667565b9350611d185a82906136c5565b90508380611d2557508915155b80611d2f57508715155b611d95576040517f08c379a000000000000000000000000000000000000000000000000000000000815260206004820152600560248201527f47533031330000000000000000000000000000000000000000000000000000006044820152606401610989565b60008815611dad57611daa828b8b8b8b6136e0565b90505b8415611df15760408051858152602081018390527f442e715f626346e8c54381002da614f62bee8d27386535b2521ec8540898556e910160405180910390a1611e2b565b60408051858152602081018390527f23428b18acfb3ea64b08dc0c1d296ea9c09702c09083ca5272e64d115b687d23910160405180910390a15b505073ffffffffffffffffffffffffffffffffffffffff811615611ed2576040517f9327136800000000000000000000000000000000000000000000000000000000815260048101839052831515602482015273ffffffffffffffffffffffffffffffffffffffff821690639327136890604401600060405180830381600087803b158015611eb957600080fd5b505af1158015611ecd573d6000803e3d6000fd5b505050505b50509b9a5050505050505050505050565b60045480611f4d576040517f08c379a000000000000000000000000000000000000000000000000000000000815260206004820152600560248201527f47533030310000000000000000000000000000000000000000000000000000006044820152606401610989565b611f5984848484610b17565b50505050565b3373ffffffffffffffffffffffffffffffffffffffff7f00000000000000000000000000000000000000000000000000000000000000001614611ffe576040517f08c379a000000000000000000000000000000000000000000000000000000000815260206004820152601c60248201527f6163636f756e743a206e6f742066726f6d20656e747279706f696e74000000006044820152606401610989565b6000612065868686868080601f0160208091040260200160405190810160405280939291908181526020018383808284376000920191909152508892507fffffffffffffffffffffffffffffffffffffffffffffffffffffffffffffffff91506136679050565b905060006120927fffffffffffffffffffffffffffffffffffffffffffffffffffffffffffffffff613871565b9050816120a157805160208201fd5b50505050505050565b6060600060035467ffffffffffffffff8111156120c9576120c961440a565b6040519080825280602002602001820160405280156120f2578160200160208202803683370190505b506001600090815260026020527fe90b7bceb6e7df5418fb78d8ee546e97c83a08bbccc01a0644d599ccd2a7c2e0549192509073ffffffffffffffffffffffffffffffffffffffff165b73ffffffffffffffffffffffffffffffffffffffff81166001146121ba578083838151811061216d5761216d615139565b73ffffffffffffffffffffffffffffffffffffffff9283166020918202929092018101919091529181166000908152600290925260409091205416816121b281614d25565b92505061213c565b509092915050565b600080825160208401855af480600052503d6020523d600060403e60403d016000fd5b6122238a8a808060200260200160405190810160405280939291908181526020018383602002808284376000920191909152508c925061389d915050565b73ffffffffffffffffffffffffffffffffffffffff84161561226757612267847f6c9a6c4a39284e37ed1cf53d337577d14212a4870fb976a4366c693b939918d555565b6122a78787878080601f016020809104026020016040519081016040528093929190818152602001838380828437600092019190915250613c6a92505050565b81156122be576122bc826000600186856136e0565b505b3373ffffffffffffffffffffffffffffffffffffffff167f141df868a6331af528e38c83b7aa03edc19be66e37ae67f9285bf4f8e3c6a1a88b8b8b8b8960405161230c959493929190615168565b60405180910390a250505050505050505050565b6000805a9050612369878787878080601f01602080910402602001604051908101604052809392919081815260200183838082843760009201919091525089925050505a613667565b61237257600080fd5b60005a61237f9083615126565b90508060405160200161239491815260200190565b604080517fffffffffffffffffffffffffffffffffffffffffffffffffffffffffffffffe0818403018152908290527f08c379a00000000000000000000000000000000000000000000000000000000082526109899160040161472b565b606060008267ffffffffffffffff81111561240f5761240f61440a565b604051908082528060200260200182016040528015612438578160200160208202803683370190505b5073ffffffffffffffffffffffffffffffffffffffff80861660009081526001602052604081205492945091165b73ffffffffffffffffffffffffffffffffffffffff8116158015906124a2575073ffffffffffffffffffffffffffffffffffffffff8116600114155b80156124ad57508482105b1561251257808483815181106124c5576124c5615139565b73ffffffffffffffffffffffffffffffffffffffff92831660209182029290920181019190915291811660009081526001909252604090912054168161250a81614d25565b925050612466565b908352919491935090915050565b6040517f35567e1a000000000000000000000000000000000000000000000000000000008152306004820152600060248201819052907f000000000000000000000000000000000000000000000000000000000000000073ffffffffffffffffffffffffffffffffffffffff16906335567e1a90604401602060405180830381865afa1580156125b4573d6000803e3d6000fd5b505050506040513d601f19601f820116820180604052508101906125d891906151ee565b905090565b3360009081526002602052604090205473ffffffffffffffffffffffffffffffffffffffff16612669576040517f08c379a000000000000000000000000000000000000000000000000000000000815260206004820152600560248201527f47533033300000000000000000000000000000000000000000000000000000006044820152606401610989565b336000818152600860209081526040808320858452909152808220600190555183917ff2a0eb156472d1440255b0d7c1e19cc07115d1051fe605b0dce69acfec884d9c91a350565b60006126c68c8c8c8c8c8c8c8c8c8c8c612cbb565b8051906020012090509b9a5050505050505050505050565b6126e6613236565b73ffffffffffffffffffffffffffffffffffffffff811615801590612722575073ffffffffffffffffffffffffffffffffffffffff8116600114155b612788576040517f08c379a000000000000000000000000000000000000000000000000000000000815260206004820152600560248201527f47533130310000000000000000000000000000000000000000000000000000006044820152606401610989565b73ffffffffffffffffffffffffffffffffffffffff82811660009081526001602052604090205481169082161461281b576040517f08c379a000000000000000000000000000000000000000000000000000000000815260206004820152600560248201527f47533130330000000000000000000000000000000000000000000000000000006044820152606401610989565b73ffffffffffffffffffffffffffffffffffffffff8181166000818152600160209081526040808320805488871685528285208054919097167fffffffffffffffffffffffff00000000000000000000000000000000000000009182161790965592849052825490941690915591519081527faab4fa2b463f581b2b32cb3b7e3b704b9ce37cc209b5fb4d77e593ace405427691015b60405180910390a15050565b6128c5613236565b7f4a204f620c8c5ccdca3fd54d003badd85ba500436a431f0cbda4f558c93c34c881815560405173ffffffffffffffffffffffffffffffffffffffff831681527f1151116914515bc0891ff9047a6cb32cf902546f83066499bcf8ba33d2353fa2906020016128b1565b612937613236565b73ffffffffffffffffffffffffffffffffffffffff811615801590612973575073ffffffffffffffffffffffffffffffffffffffff8116600114155b8015612995575073ffffffffffffffffffffffffffffffffffffffff81163014155b6129fb576040517f08c379a000000000000000000000000000000000000000000000000000000000815260206004820152600560248201527f47533230330000000000000000000000000000000000000000000000000000006044820152606401610989565b73ffffffffffffffffffffffffffffffffffffffff8181166000908152600260205260409020541615612a8a576040517f08c379a000000000000000000000000000000000000000000000000000000000815260206004820152600560248201527f47533230340000000000000000000000000000000000000000000000000000006044820152606401610989565b73ffffffffffffffffffffffffffffffffffffffff821615801590612ac6575073ffffffffffffffffffffffffffffffffffffffff8216600114155b612b2c576040517f08c379a000000000000000000000000000000000000000000000000000000000815260206004820152600560248201527f47533230330000000000000000000000000000000000000000000000000000006044820152606401610989565b73ffffffffffffffffffffffffffffffffffffffff838116600090815260026020526040902054811690831614612bbf576040517f08c379a000000000000000000000000000000000000000000000000000000000815260206004820152600560248201527f47533230350000000000000000000000000000000000000000000000000000006044820152606401610989565b73ffffffffffffffffffffffffffffffffffffffff8281166000818152600260209081526040808320805487871680865283862080549289167fffffffffffffffffffffffff0000000000000000000000000000000000000000938416179055968a1685528285208054821690971790965592849052825490941690915591519081527ff8d49fc529812e9a7c5c50e69c20f0dccc0db8fa95c98bc58cc9a4f1c1299eaf910160405180910390a160405173ffffffffffffffffffffffffffffffffffffffff821681527f9465fa0c962cc76958e6373a993326400c1c94f8be2fe3a952adfa7f60b2ea269060200160405180910390a1505050565b606060007fbb8310d486368db6bd6f849402fdd73ad53d316b5a4b2644ad6efe0f941286d860001b8d8d8d8d604051612cf5929190615207565b604051908190038120612d1b949392918e908e908e908e908e908e908e90602001615217565b604080517fffffffffffffffffffffffffffffffffffffffffffffffffffffffffffffffe0818403018152919052805160209091012090507f19000000000000000000000000000000000000000000000000000000000000007f0100000000000000000000000000000000000000000000000000000000000000612def60007f47e79534a245952e8b16893a336b85a3d9ea9fa8c573f3d803afb92a794692184660408051602081019390935282015230606082015260800160405160208183030381529060405280519060200120905090565b6040517fff0000000000000000000000000000000000000000000000000000000000000093841660208201529290911660218301526022820152604281018290526062016040516020818303038152906040529150509b9a5050505050505050505050565b612e5c613236565b612e84817f6c9a6c4a39284e37ed1cf53d337577d14212a4870fb976a4366c693b939918d555565b60405173ffffffffffffffffffffffffffffffffffffffff821681527f5ac6c46c93c8d0e53714ba3b53db3e7c046da994313d7ed0d192028bc7c228b0906020016119ca565b6000612f3384600085858080601f016020809104026020016040519081016040528093929190818152602001838380828437600092019190915250600192507fffffffffffffffffffffffffffffffffffffffffffffffffffffffffffffffff91506136679050565b90506000612f607fffffffffffffffffffffffffffffffffffffffffffffffffffffffffffffffff613871565b90508115612f9c57806040517fa52b2169000000000000000000000000000000000000000000000000000000008152600401610989919061472b565b805160208201fd5b612fac613236565b806001600354612fbc9190615126565b1015613024576040517f08c379a000000000000000000000000000000000000000000000000000000000815260206004820152600560248201527f47533230310000000000000000000000000000000000000000000000000000006044820152606401610989565b73ffffffffffffffffffffffffffffffffffffffff821615801590613060575073ffffffffffffffffffffffffffffffffffffffff8216600114155b6130c6576040517f08c379a000000000000000000000000000000000000000000000000000000000815260206004820152600560248201527f47533230330000000000000000000000000000000000000000000000000000006044820152606401610989565b73ffffffffffffffffffffffffffffffffffffffff838116600090815260026020526040902054811690831614613159576040517f08c379a000000000000000000000000000000000000000000000000000000000815260206004820152600560248201527f47533230350000000000000000000000000000000000000000000000000000006044820152606401610989565b73ffffffffffffffffffffffffffffffffffffffff828116600081815260026020526040808220805488861684529183208054929095167fffffffffffffffffffffffff000000000000000000000000000000000000000092831617909455918152825490911690915560038054916131d183615294565b909155505060405173ffffffffffffffffffffffffffffffffffffffff831681527ff8d49fc529812e9a7c5c50e69c20f0dccc0db8fa95c98bc58cc9a4f1c1299eaf9060200160405180910390a1806004541461323157613231816119d5565b505050565b33301461329f576040517f08c379a000000000000000000000000000000000000000000000000000000000815260206004820152600560248201527f47533033310000000000000000000000000000000000000000000000000000006044820152606401610989565b565b6000826000036132b35750600061123d565b60006132bf8385614f74565b9050826132cc85836150eb565b1461160a57600080fd5b6000806132e383856150d8565b90508381101561160a57600080fd5b60008060006133018585613dfa565b915091506117db81613e3f565b600080613368846040517f19457468657265756d205369676e6564204d6573736167653a0a3332000000006020820152603c8101829052600090605c01604051602081830303815290604052805190602001209050919050565b905060006133b88261337e610140890189614ddd565b8080601f0160208091040260200160405190810160405280939291908181526020018383808284376000920191909152506132f292505050565b905060045460011415806133d257506133d081611295565b155b156133e25760019250505061160a565b67ffffffffffffffff602087013510613457576040517f08c379a000000000000000000000000000000000000000000000000000000000815260206004820152601c60248201527f6163636f756e743a206e6f6e73657175656e7469616c206e6f6e6365000000006044820152606401610989565b83156134a957604051600090339086908381818185875af1925050503d806000811461349f576040519150601f19603f3d011682016040523d82523d6000602084013e6134a4565b606091505b505050505b50509392505050565b600061123d6134bf614096565b836040517f19010000000000000000000000000000000000000000000000000000000000006020820152602281018390526042810182905260009060620160405160208183030381529060405280519060200120905092915050565b60606000639e2045ce60e01b85858560405160240161353c9392919061532d565b604080517fffffffffffffffffffffffffffffffffffffffffffffffffffffffffffffffe08184030181529190526020810180517bffffffffffffffffffffffffffffffffffffffffffffffffffffffff167fffffffff0000000000000000000000000000000000000000000000000000000090931692909217909152905060006135eb87828460017fffffffffffffffffffffffffffffffffffffffffffffffffffffffffffffffff613667565b90506136167fffffffffffffffffffffffffffffffffffffffffffffffffffffffffffffffff613871565b92508061362557825160208401fd5b5050949350505050565b600060d08265ffffffffffff16901b60a08465ffffffffffff16901b8561365757600061365a565b60015b60ff161717949350505050565b6000600183600181111561367d5761367d614fd4565b03613695576000808551602087018986f490506136a5565b600080855160208701888a87f190505b95945050505050565b6000818310156136be578161160a565b5090919050565b6000828211156136d457600080fd5b600061171f8385615126565b60008073ffffffffffffffffffffffffffffffffffffffff8316156137055782613707565b325b905073ffffffffffffffffffffffffffffffffffffffff84166137e6576137463a8610613734573a613736565b855b61374089896132d6565b906132a1565b60405190925073ffffffffffffffffffffffffffffffffffffffff82169083156108fc029084906000818181858888f193505050506137e1576040517f08c379a000000000000000000000000000000000000000000000000000000000815260206004820152600560248201527f47533031310000000000000000000000000000000000000000000000000000006044820152606401610989565b613867565b6137f48561374089896132d6565b91506138018482846141ca565b613867576040517f08c379a000000000000000000000000000000000000000000000000000000000815260206004820152600560248201527f47533031320000000000000000000000000000000000000000000000000000006044820152606401610989565b5095945050505050565b60603d8281111561387f5750815b604051602082018101604052818152816000602083013e9392505050565b60045415613907576040517f08c379a000000000000000000000000000000000000000000000000000000000815260206004820152600560248201527f47533230300000000000000000000000000000000000000000000000000000006044820152606401610989565b8151811115613972576040517f08c379a000000000000000000000000000000000000000000000000000000000815260206004820152600560248201527f47533230310000000000000000000000000000000000000000000000000000006044820152606401610989565b60018110156139dd576040517f08c379a000000000000000000000000000000000000000000000000000000000815260206004820152600560248201527f47533230320000000000000000000000000000000000000000000000000000006044820152606401610989565b600160005b8351811015613c125760008482815181106139ff576139ff615139565b60200260200101519050600073ffffffffffffffffffffffffffffffffffffffff168173ffffffffffffffffffffffffffffffffffffffff1614158015613a5d575073ffffffffffffffffffffffffffffffffffffffff8116600114155b8015613a7f575073ffffffffffffffffffffffffffffffffffffffff81163014155b8015613ab757508073ffffffffffffffffffffffffffffffffffffffff168373ffffffffffffffffffffffffffffffffffffffff1614155b613b1d576040517f08c379a000000000000000000000000000000000000000000000000000000000815260206004820152600560248201527f47533230330000000000000000000000000000000000000000000000000000006044820152606401610989565b73ffffffffffffffffffffffffffffffffffffffff8181166000908152600260205260409020541615613bac576040517f08c379a000000000000000000000000000000000000000000000000000000000815260206004820152600560248201527f47533230340000000000000000000000000000000000000000000000000000006044820152606401610989565b73ffffffffffffffffffffffffffffffffffffffff928316600090815260026020526040902080547fffffffffffffffffffffffff0000000000000000000000000000000000000000169382169390931790925580613c0a81614d25565b9150506139e2565b5073ffffffffffffffffffffffffffffffffffffffff16600090815260026020526040902080547fffffffffffffffffffffffff00000000000000000000000000000000000000001660011790559051600355600455565b600160008190526020527fcc69885fda6bcc1a4ace058b4a62bf5e179ea78fd58a1ccd71c22cc9b688792f5473ffffffffffffffffffffffffffffffffffffffff1615613d13576040517f08c379a000000000000000000000000000000000000000000000000000000000815260206004820152600560248201527f47533130300000000000000000000000000000000000000000000000000000006044820152606401610989565b6001600081905260208190527fcc69885fda6bcc1a4ace058b4a62bf5e179ea78fd58a1ccd71c22cc9b688792f80547fffffffffffffffffffffffff000000000000000000000000000000000000000016909117905573ffffffffffffffffffffffffffffffffffffffff821615610b1357613d948260008360015a613667565b610b13576040517f08c379a000000000000000000000000000000000000000000000000000000000815260206004820152600560248201527f47533030300000000000000000000000000000000000000000000000000000006044820152606401610989565b6000808251604103613e305760208301516040840151606085015160001a613e2487828585614294565b94509450505050613e38565b506000905060025b9250929050565b6000816004811115613e5357613e53614fd4565b03613e5b5750565b6001816004811115613e6f57613e6f614fd4565b03613ed6576040517f08c379a000000000000000000000000000000000000000000000000000000000815260206004820152601860248201527f45434453413a20696e76616c6964207369676e617475726500000000000000006044820152606401610989565b6002816004811115613eea57613eea614fd4565b03613f51576040517f08c379a000000000000000000000000000000000000000000000000000000000815260206004820152601f60248201527f45434453413a20696e76616c6964207369676e6174757265206c656e677468006044820152606401610989565b6003816004811115613f6557613f65614fd4565b03613ff2576040517f08c379a000000000000000000000000000000000000000000000000000000000815260206004820152602260248201527f45434453413a20696e76616c6964207369676e6174757265202773272076616c60448201527f75650000000000000000000000000000000000000000000000000000000000006064820152608401610989565b600481600481111561400657614006614fd4565b03614093576040517f08c379a000000000000000000000000000000000000000000000000000000000815260206004820152602260248201527f45434453413a20696e76616c6964207369676e6174757265202776272076616c60448201527f75650000000000000000000000000000000000000000000000000000000000006064820152608401610989565b50565b60003073ffffffffffffffffffffffffffffffffffffffff7f0000000000000000000000000000000000000000000000000000000000000000161480156140fc57507f000000000000000000000000000000000000000000000000000000000000000046145b1561412657507f000000000000000000000000000000000000000000000000000000000000000090565b50604080517f00000000000000000000000000000000000000000000000000000000000000006020808301919091527f0000000000000000000000000000000000000000000000000000000000000000828401527f000000000000000000000000000000000000000000000000000000000000000060608301524660808301523060a0808401919091528351808403909101815260c0909201909252805191012090565b6040805173ffffffffffffffffffffffffffffffffffffffff841660248201526044808201849052825180830390910181526064909101909152602080820180517bffffffffffffffffffffffffffffffffffffffffffffffffffffffff167fa9059cbb000000000000000000000000000000000000000000000000000000001781528251600093929184919082896127105a03f13d8015614277576020811461427f576000935061428a565b81935061428a565b600051158215171593505b5050509392505050565b6000807f7fffffffffffffffffffffffffffffff5d576e7357a4501ddfe92f46681b20a08311156142cb57506000905060036143a3565b8460ff16601b141580156142e357508460ff16601c14155b156142f457506000905060046143a3565b6040805160008082526020820180845289905260ff881692820192909252606081018690526080810185905260019060a0016020604051602081039080840390855afa158015614348573d6000803e3d6000fd5b50506040517fffffffffffffffffffffffffffffffffffffffffffffffffffffffffffffffe0015191505073ffffffffffffffffffffffffffffffffffffffff811661439c576000600192509250506143a3565b9150600090505b94509492505050565b73ffffffffffffffffffffffffffffffffffffffff8116811461409357600080fd5b80356143d9816143ac565b919050565b600080604083850312156143f157600080fd5b82356143fc816143ac565b946020939093013593505050565b7f4e487b7100000000000000000000000000000000000000000000000000000000600052604160045260246000fd5b600082601f83011261444a57600080fd5b813567ffffffffffffffff808211156144655761446561440a565b604051601f83017fffffffffffffffffffffffffffffffffffffffffffffffffffffffffffffffe0908116603f011681019082821181831017156144ab576144ab61440a565b816040528381528660208588010111156144c457600080fd5b836020870160208301376000602085830101528094505050505092915050565b600080600080608085870312156144fa57600080fd5b84359350602085013567ffffffffffffffff8082111561451957600080fd5b61452588838901614439565b9450604087013591508082111561453b57600080fd5b5061454887828801614439565b949793965093946060013593505050565b6000806040838503121561456c57600080fd5b82359150602083013567ffffffffffffffff81111561458a57600080fd5b61459685828601614439565b9150509250929050565b6000602082840312156145b257600080fd5b813561160a816143ac565b6000806000606084860312156145d257600080fd5b833567ffffffffffffffff8111156145e957600080fd5b840161016081870312156145fc57600080fd5b95602085013595506040909401359392505050565b8035600281106143d957600080fd5b6000806000806080858703121561463657600080fd5b8435614641816143ac565b935060208501359250604085013567ffffffffffffffff81111561466457600080fd5b61467087828801614439565b92505061467f60608601614611565b905092959194509250565b6000815180845260005b818110156146b057602081850181015186830182015201614694565b5060006020828601015260207fffffffffffffffffffffffffffffffffffffffffffffffffffffffffffffffe0601f83011685010191505092915050565b821515815260406020820152600061171f604083018461468a565b6000806040838503121561471c57600080fd5b50508035926020909101359150565b60208152600061160a602083018461468a565b60006020828403121561475057600080fd5b5035919050565b60008083601f84011261476957600080fd5b50813567ffffffffffffffff81111561478157600080fd5b602083019150836020828501011115613e3857600080fd5b60008060008060008060008060008060006101408c8e0312156147bb57600080fd5b6147c48c6143ce565b9a5060208c0135995067ffffffffffffffff8060408e013511156147e757600080fd5b6147f78e60408f01358f01614757565b909a50985061480860608e01614611565b975060808d0135965060a08d0135955060c08d0135945061482b60e08e016143ce565b935061483a6101008e016143ce565b9250806101208e0135111561484e57600080fd5b506148608d6101208e01358e01614439565b90509295989b509295989b9093969950565b60008060006060848603121561488757600080fd5b83359250602084013567ffffffffffffffff808211156148a657600080fd5b6148b287838801614439565b935060408601359150808211156148c857600080fd5b506148d586828701614439565b9150509250925092565b6000806000806000608086880312156148f757600080fd5b8535614902816143ac565b945060208601359350604086013567ffffffffffffffff81111561492557600080fd5b61493188828901614757565b9094509250614944905060608701614611565b90509295509295909350565b600081518084526020808501945080840160005b8381101561499657815173ffffffffffffffffffffffffffffffffffffffff1687529582019590820190600101614964565b509495945050505050565b60208152600061160a6020830184614950565b600080604083850312156149c757600080fd5b82356149d2816143ac565b9150602083013567ffffffffffffffff81111561458a57600080fd5b6000806000806000806000806000806101008b8d031215614a0e57600080fd5b8a3567ffffffffffffffff80821115614a2657600080fd5b818d0191508d601f830112614a3a57600080fd5b813581811115614a4957600080fd5b8e60208260051b8501011115614a5e57600080fd5b60208381019d50909b508d01359950614a7960408e016143ce565b985060608d0135915080821115614a8f57600080fd5b50614a9c8d828e01614757565b9097509550614aaf905060808c016143ce565b9350614abd60a08c016143ce565b925060c08b01359150614ad260e08c016143ce565b90509295989b9194979a5092959850565b604081526000614af66040830185614950565b905073ffffffffffffffffffffffffffffffffffffffff831660208301529392505050565b60008060008060008060008060008060006101408c8e031215614b3d57600080fd5b8b35614b48816143ac565b9a5060208c0135995060408c013567ffffffffffffffff811115614b6b57600080fd5b614b778e828f01614757565b909a509850614b8a905060608d01614611565b965060808c0135955060a08c0135945060c08c0135935060e08c0135614baf816143ac565b92506101008c0135614bc0816143ac565b809250506101208c013590509295989b509295989b9093969950565b60008060408385031215614bef57600080fd5b8235614bfa816143ac565b91506020830135614c0a816143ac565b809150509250929050565b600080600060608486031215614c2a57600080fd5b8335614c35816143ac565b92506020840135614c45816143ac565b91506040840135614c55816143ac565b809150509250925092565b600080600060408486031215614c7557600080fd5b8335614c80816143ac565b9250602084013567ffffffffffffffff811115614c9c57600080fd5b614ca886828701614757565b9497909650939450505050565b600080600060608486031215614cca57600080fd5b8335614cd5816143ac565b92506020840135614ce5816143ac565b929592945050506040919091013590565b7f4e487b7100000000000000000000000000000000000000000000000000000000600052601160045260246000fd5b60007fffffffffffffffffffffffffffffffffffffffffffffffffffffffffffffffff8203614d5657614d56614cf6565b5060010190565b604081526000614d70604083018561468a565b82810360208401526136a5818561468a565b600060208284031215614d9457600080fd5b81517fffffffff000000000000000000000000000000000000000000000000000000008116811461160a57600080fd5b60ff828116828216039081111561123d5761123d614cf6565b60008083357fffffffffffffffffffffffffffffffffffffffffffffffffffffffffffffffe1843603018112614e1257600080fd5b83018035915067ffffffffffffffff821115614e2d57600080fd5b602001915036819003821315613e3857600080fd5b60008085851115614e5257600080fd5b83861115614e5f57600080fd5b5050820193919092039150565b7fffffffffffffffffffffffffffffffffffffffff000000000000000000000000813581811691601485101561123a5760149490940360031b84901b1690921692915050565b7fffffffffffff0000000000000000000000000000000000000000000000000000813581811691600685101561123a5760069490940360031b84901b1690921692915050565b60008060408385031215614f0b57600080fd5b823567ffffffffffffffff80821115614f2357600080fd5b614f2f86838701614439565b93506020850135915080821115614f4557600080fd5b5061459685828601614439565b600060208284031215614f6457600080fd5b8151801515811461160a57600080fd5b808202811582820484141761123d5761123d614cf6565b8183528181602085013750600060208284010152600060207fffffffffffffffffffffffffffffffffffffffffffffffffffffffffffffffe0601f840116840101905092915050565b7f4e487b7100000000000000000000000000000000000000000000000000000000600052602160045260246000fd5b6002811061503a577f4e487b7100000000000000000000000000000000000000000000000000000000600052602160045260246000fd5b9052565b600073ffffffffffffffffffffffffffffffffffffffff808f1683528d6020840152610160604084015261507761016084018d8f614f8b565b615084606085018d615003565b8a60808501528960a08501528860c085015281881660e08501528187166101008501528381036101208501526150ba818761468a565b925050808416610140840152509d9c50505050505050505050505050565b8082018082111561123d5761123d614cf6565b600082615121577f4e487b7100000000000000000000000000000000000000000000000000000000600052601260045260246000fd5b500490565b8181038181111561123d5761123d614cf6565b7f4e487b7100000000000000000000000000000000000000000000000000000000600052603260045260246000fd5b6080808252810185905260008660a08301825b888110156151b857823561518e816143ac565b73ffffffffffffffffffffffffffffffffffffffff1682526020928301929091019060010161517b565b506020840196909652505073ffffffffffffffffffffffffffffffffffffffff9283166040820152911660609091015292915050565b60006020828403121561520057600080fd5b5051919050565b8183823760009101908152919050565b6000610160820190508c825273ffffffffffffffffffffffffffffffffffffffff808d1660208401528b60408401528a6060840152615259608084018b615003565b60a083019890985260c082019690965260e0810194909452918516610100840152909316610120820152610140019190915295945050505050565b6000816152a3576152a3614cf6565b507fffffffffffffffffffffffffffffffffffffffffffffffffffffffffffffffff0190565b60008083357fffffffffffffffffffffffffffffffffffffffffffffffffffffffffffffffe18436030181126152fe57600080fd5b830160208101925035905067ffffffffffffffff81111561531e57600080fd5b803603821315613e3857600080fd5b6060815261535b60608201615341866143ce565b73ffffffffffffffffffffffffffffffffffffffff169052565b60208401356080820152600061537460408601866152c9565b6101608060a086015261538c6101c086018385614f8b565b925061539b60608901896152c9565b92507fffffffffffffffffffffffffffffffffffffffffffffffffffffffffffffffa0808786030160c08801526153d3858584614f8b565b945060808a013560e0880152610100935060a08a013584880152610120915060c08a01358288015261014060e08b013581890152848b01358489015261541b838c018c6152c9565b955093508188870301610180890152615435868686614f8b565b9550615443818c018c6152c9565b955093505080878603016101a08801525050615460838383614f8b565b6020860197909752505050506040015291905056fea26469706673582212204ecef777351ea2147e530ca1a5a6bd12a6ca51ef1acf7d36a9b2fe55775ec0f664736f6c63430008110033",
  "devdoc": {
    "author": "moonkey team",
    "kind": "dev",
    "methods": {
      "addOwnerWithThreshold(address,uint256)": {
        "details": "Allows to add a new owner to the Safe and update the threshold at the same time.      This can only be done via a Safe transaction.",
        "params": {
          "_threshold": "New threshold.",
          "owner": "New owner address."
        }
      },
      "approveHash(bytes32)": {
        "details": "Marks a hash as approved. This can be used to validate a hash that is used by a signature.",
        "params": {
          "hashToApprove": "The hash that should be marked as approved for signatures that are verified by this contract."
        }
      },
      "changeThreshold(uint256)": {
        "details": "Allows to update the number of required confirmations by Safe owners.      This can only be done via a Safe transaction.",
        "params": {
          "_threshold": "New threshold."
        }
      },
      "checkNSignatures(bytes32,bytes,bytes,uint256)": {
        "details": "Checks whether the signature provided is valid for the provided data, hash. Will revert otherwise.",
        "params": {
          "data": "That should be signed (this is passed to an external validator contract)",
          "dataHash": "Hash of the data (could be either a message hash or transaction hash)",
          "requiredSignatures": "Amount of required valid signatures.",
          "signatures": "Signature data that should be verified. Can be ECDSA signature, contract signature (EIP-1271) or approved hash."
        }
      },
      "checkSignatures(bytes32,bytes,bytes)": {
        "details": "Checks whether the signature provided is valid for the provided data, hash. Will revert otherwise.",
        "params": {
          "data": "That should be signed (this is passed to an external validator contract)",
          "dataHash": "Hash of the data (could be either a message hash or transaction hash)",
          "signatures": "Signature data that should be verified. Can be ECDSA signature, contract signature (EIP-1271) or approved hash."
        }
      },
      "disableModule(address,address)": {
        "details": "Allows to remove a module from the whitelist.      This can only be done via a Safe transaction.",
        "params": {
          "module": "Module to be removed.",
          "prevModule": "Module that pointed to the module to be removed in the linked list"
        }
      },
      "enableModule(address)": {
        "details": "Allows to add a module to the whitelist.      This can only be done via a Safe transaction.",
        "params": {
          "module": "Module to be whitelisted."
        }
      },
      "encodeTransactionData(address,uint256,bytes,uint8,uint256,uint256,uint256,address,address,uint256)": {
        "details": "Returns the bytes that are hashed to be signed by owners.",
        "params": {
          "_nonce": "Transaction nonce.",
          "baseGas": "Gas costs for that are independent of the transaction execution(e.g. base transaction fee, signature check, payment of the refund)",
          "data": "Data payload.",
          "gasPrice": "Maximum gas price that should be used for this transaction.",
          "gasToken": "Token address (or 0 if ETH) that is used for the payment.",
          "operation": "Operation type.",
          "refundReceiver": "Address of receiver of gas payment (or 0 if tx.origin).",
          "safeTxGas": "Gas that should be used for the safe transaction.",
          "to": "Destination address.",
          "value": "Ether value."
        },
        "returns": {
          "_0": "Transaction hash bytes."
        }
      },
      "execTransaction(address,uint256,bytes,uint8,uint256,uint256,uint256,address,address,bytes)": {
        "details": "Allows to execute a Safe transaction confirmed by required number of owners and then pays the account that submitted the transaction.      Note: The fees are always transferred, even if the user transaction fails.",
        "params": {
          "baseGas": "Gas costs that are independent of the transaction execution(e.g. base transaction fee, signature check, payment of the refund)",
          "data": "Data payload of Safe transaction.",
          "gasPrice": "Gas price that should be used for the payment calculation.",
          "gasToken": "Token address (or 0 if ETH) that is used for the payment.",
          "operation": "Operation type of Safe transaction.",
          "refundReceiver": "Address of receiver of gas payment (or 0 if tx.origin).",
          "safeTxGas": "Gas that should be used for the Safe transaction.",
          "signatures": "Packed signature data ({bytes32 r}{bytes32 s}{uint8 v})",
          "to": "Destination address of Safe transaction.",
          "value": "Ether value of Safe transaction."
        }
      },
      "execTransactionFromModule(address,uint256,bytes,uint8)": {
        "details": "Allows a Module to execute a Safe transaction without any further confirmations.",
        "params": {
          "data": "Data payload of module transaction.",
          "operation": "Operation type of module transaction.",
          "to": "Destination address of module transaction.",
          "value": "Ether value of module transaction."
        }
      },
      "execTransactionFromModuleReturnData(address,uint256,bytes,uint8)": {
        "details": "Allows a Module to execute a Safe transaction without any further confirmations and return data",
        "params": {
          "data": "Data payload of module transaction.",
          "operation": "Operation type of module transaction.",
          "to": "Destination address of module transaction.",
          "value": "Ether value of module transaction."
        }
      },
      "getChainId()": {
        "details": "Returns the chain id used by this contract."
      },
      "getModulesPaginated(address,uint256)": {
        "details": "Returns array of modules.",
        "params": {
          "pageSize": "Maximum number of modules that should be returned.",
          "start": "Start of the page."
        },
        "returns": {
          "array": "Array of modules.",
          "next": "Start of the next page."
        }
      },
      "getOwners()": {
        "details": "Returns array of owners.",
        "returns": {
          "_0": "Array of Safe owners."
        }
      },
      "getStorageAt(uint256,uint256)": {
        "details": "Reads `length` bytes of storage in the currents contract",
        "params": {
          "length": "- the number of words (32 bytes) of data to read",
          "offset": "- the offset in the current contract's storage in words to start reading from"
        },
        "returns": {
          "_0": "the bytes that were read."
        }
      },
      "getTransactionHash(address,uint256,bytes,uint8,uint256,uint256,uint256,address,address,uint256)": {
        "details": "Returns hash to be signed by owners.",
        "params": {
          "_nonce": "Transaction nonce.",
          "baseGas": "Gas costs for data used to trigger the safe transaction.",
          "data": "Data payload.",
          "gasPrice": "Maximum gas price that should be used for this transaction.",
          "gasToken": "Token address (or 0 if ETH) that is used for the payment.",
          "operation": "Operation type.",
          "refundReceiver": "Address of receiver of gas payment (or 0 if tx.origin).",
          "safeTxGas": "Fas that should be used for the safe transaction.",
          "to": "Destination address.",
          "value": "Ether value."
        },
        "returns": {
          "_0": "Transaction hash."
        }
      },
      "isModuleEnabled(address)": {
        "details": "Returns if an module is enabled",
        "returns": {
          "_0": "True if the module is enabled"
        }
      },
      "queryPlugin(address,bytes)": {
        "details": "this function will always fail, it should be used only to query plugin for data using error message",
        "params": {
          "_data": "Data to query",
          "_plugin": "Plugin address"
        }
      },
      "removeOwner(address,address,uint256)": {
        "details": "Allows to remove an owner from the Safe and update the threshold at the same time.      This can only be done via a Safe transaction.",
        "params": {
          "_threshold": "New threshold.",
          "owner": "Owner address to be removed.",
          "prevOwner": "Owner that pointed to the owner to be removed in the linked list"
        }
      },
      "requiredTxGas(address,uint256,bytes,uint8)": {
        "details": "Allows to estimate a Safe transaction.      This method is only meant for estimation purpose, therefore the call will always revert and encode the result in the revert data.      Since the `estimateGas` function includes refunds, call this method to get an estimated of the costs that are deducted from the safe with `execTransaction`",
        "params": {
          "data": "Data payload of Safe transaction.",
          "operation": "Operation type of Safe transaction.",
          "to": "Destination address of Safe transaction.",
          "value": "Ether value of Safe transaction."
        },
        "returns": {
          "_0": "Estimate without refunds and overhead fees (base transaction and payload data gas costs)."
        }
      },
      "setFallbackHandler(address)": {
        "details": "Allows to add a contract to handle fallback calls.      Only fallback calls without value and with data will be forwarded.      This can only be done via a Safe transaction.",
        "params": {
          "handler": "contract to handle fallbacks calls."
        }
      },
      "setGuard(address)": {
        "details": "Set a guard that checks transactions before execution",
        "params": {
          "guard": "The address of the guard to be used or the 0 address to disable the guard"
        }
      },
      "setup(address[],uint256,address,bytes,address,address,uint256,address)": {
        "details": "Setup function sets initial storage of contract.",
        "params": {
          "_owners": "List of Safe owners.",
          "_threshold": "Number of required confirmations for a Safe transaction.",
          "data": "Data payload for optional delegate call.",
          "fallbackHandler": "Handler for fallback calls to this contract",
          "payment": "Value that should be paid",
          "paymentReceiver": "Adddress that should receive the payment (or 0 if tx.origin)",
          "paymentToken": "Token that should be used for the payment (0 is ETH)",
          "to": "Contract address for optional delegate call."
        }
      },
      "simulateAndRevert(address,bytes)": {
        "details": "Performs a delegetecall on a targetContract in the context of self. Internally reverts execution to avoid side effects (making it static). This method reverts with data equal to `abi.encode(bool(success), bytes(response))`. Specifically, the `returndata` after a call to this method will be: `success:bool || response.length:uint256 || response:bytes`.",
        "params": {
          "calldataPayload": "Calldata that should be sent to the target contract (encoded method name and arguments).",
          "targetContract": "Address of the contract containing the code to execute."
        }
      },
      "swapOwner(address,address,address)": {
        "details": "Allows to swap/replace an owner from the Safe with another address.      This can only be done via a Safe transaction.",
        "params": {
          "newOwner": "New owner address.",
          "oldOwner": "Owner address to be replaced.",
          "prevOwner": "Owner that pointed to the owner to be replaced in the linked list"
        }
      },
      "validateUserOp((address,uint256,bytes,bytes,uint256,uint256,uint256,uint256,uint256,bytes,bytes),bytes32,uint256)": {
        "details": "Must validate caller is the entryPoint.      Must validate the signature and nonce",
        "params": {
          "missingAccountFunds": "missing funds on the account's deposit in the entrypoint.      This is the minimum amount to transfer to the sender(entryPoint) to be able to make the call.      The excess is left as a deposit in the entrypoint, for future calls.      can be withdrawn anytime using \"entryPoint.withdrawTo()\"      In case there is a paymaster in the request (or the current deposit is high enough), this value will be zero.",
          "userOp": "the operation that is about to be executed.",
          "userOpHash": "hash of the user's request data. can be used as the basis for signature."
        },
        "returns": {
          "validationData": "packaged ValidationData structure. use `_packValidationData` and `_unpackValidationData` to encode and decode      <20-byte> sigAuthorizer - 0 for valid signature, 1 to mark signature failure,         otherwise, an address of an \"authorizer\" contract.      <6-byte> validUntil - last timestamp this operation is valid. 0 for \"indefinite\"      <6-byte> validAfter - first timestamp this operation is valid      If an account doesn't use time-range, it is enough to return SIG_VALIDATION_FAILED value (1) for signature failure.      Note that the validation code cannot use block.timestamp (or block.number) directly."
        }
      }
    },
    "version": 1
  },
  "userdoc": {
    "kind": "user",
    "methods": {
      "addOwnerWithThreshold(address,uint256)": {
        "notice": "Adds the owner `owner` to the Safe and updates the threshold to `_threshold`."
      },
      "changeThreshold(uint256)": {
        "notice": "Changes the threshold of the Safe to `_threshold`."
      },
      "disableModule(address,address)": {
        "notice": "Disables the module `module` for the Safe."
      },
      "enableModule(address)": {
        "notice": "Enables the module `module` for the Safe."
      },
      "executeAndRevert(address,uint256,bytes,uint8)": {
        "notice": "Execute a call but also revert if the execution fails. The default behavior of the Safe is to not revert if the call fails, which is challenging for integrating with ERC4337 because then the EntryPoint wouldn't know to emit the UserOperationRevertReason event, which the frontend/client uses to capture the reason for the failure."
      },
      "getNonce()": {
        "notice": "Helper for wallet to get the next nonce."
      },
      "queryPlugin(address,bytes)": {
        "notice": "Query plugin for data"
      },
      "removeOwner(address,address,uint256)": {
        "notice": "Removes the owner `owner` from the Safe and updates the threshold to `_threshold`."
      },
      "requiredTxGas(address,uint256,bytes,uint8)": {
        "notice": "Deprecated in favor of common/StorageAccessible.sol and will be removed in next version."
      },
      "swapOwner(address,address,address)": {
        "notice": "Replaces the owner `oldOwner` in the Safe with `newOwner`."
      },
      "validateUserOp((address,uint256,bytes,bytes,uint256,uint256,uint256,uint256,uint256,bytes,bytes),bytes32,uint256)": {
        "notice": "Validate user's signature and nonce the entryPoint will make the call to the recipient only if this validation call returns successfully. signature failure should be reported by returning SIG_VALIDATION_FAILED (1). This allows making a \"simulation call\" without a valid signature Other failures (e.g. nonce mismatch, or invalid signature format) should still revert to signal failure."
      }
    },
    "version": 1
  },
  "storageLayout": {
    "storage": [
      {
        "astId": 2098,
        "contract": "contracts/moonkey/MoonKeyPluginSafe.sol:MoonKeyPluginSafe",
        "label": "singleton",
        "offset": 0,
        "slot": "0",
        "type": "t_address"
      },
      {
        "astId": 1149,
        "contract": "contracts/moonkey/MoonKeyPluginSafe.sol:MoonKeyPluginSafe",
        "label": "modules",
        "offset": 0,
        "slot": "1",
        "type": "t_mapping(t_address,t_address)"
      },
      {
        "astId": 1508,
        "contract": "contracts/moonkey/MoonKeyPluginSafe.sol:MoonKeyPluginSafe",
        "label": "owners",
        "offset": 0,
        "slot": "2",
        "type": "t_mapping(t_address,t_address)"
      },
      {
        "astId": 1510,
        "contract": "contracts/moonkey/MoonKeyPluginSafe.sol:MoonKeyPluginSafe",
        "label": "ownerCount",
        "offset": 0,
        "slot": "3",
        "type": "t_uint256"
      },
      {
        "astId": 1512,
        "contract": "contracts/moonkey/MoonKeyPluginSafe.sol:MoonKeyPluginSafe",
        "label": "threshold",
        "offset": 0,
        "slot": "4",
        "type": "t_uint256"
      },
      {
        "astId": 82,
        "contract": "contracts/moonkey/MoonKeyPluginSafe.sol:MoonKeyPluginSafe",
        "label": "nonce",
        "offset": 0,
        "slot": "5",
        "type": "t_uint256"
      },
      {
        "astId": 84,
        "contract": "contracts/moonkey/MoonKeyPluginSafe.sol:MoonKeyPluginSafe",
        "label": "_deprecatedDomainSeparator",
        "offset": 0,
        "slot": "6",
        "type": "t_bytes32"
      },
      {
        "astId": 88,
        "contract": "contracts/moonkey/MoonKeyPluginSafe.sol:MoonKeyPluginSafe",
        "label": "signedMessages",
        "offset": 0,
        "slot": "7",
        "type": "t_mapping(t_bytes32,t_uint256)"
      },
      {
        "astId": 94,
        "contract": "contracts/moonkey/MoonKeyPluginSafe.sol:MoonKeyPluginSafe",
        "label": "approvedHashes",
        "offset": 0,
        "slot": "8",
        "type": "t_mapping(t_address,t_mapping(t_bytes32,t_uint256))"
      }
    ],
    "types": {
      "t_address": {
        "encoding": "inplace",
        "label": "address",
        "numberOfBytes": "20"
      },
      "t_bytes32": {
        "encoding": "inplace",
        "label": "bytes32",
        "numberOfBytes": "32"
      },
      "t_mapping(t_address,t_address)": {
        "encoding": "mapping",
        "key": "t_address",
        "label": "mapping(address => address)",
        "numberOfBytes": "32",
        "value": "t_address"
      },
      "t_mapping(t_address,t_mapping(t_bytes32,t_uint256))": {
        "encoding": "mapping",
        "key": "t_address",
        "label": "mapping(address => mapping(bytes32 => uint256))",
        "numberOfBytes": "32",
        "value": "t_mapping(t_bytes32,t_uint256)"
      },
      "t_mapping(t_bytes32,t_uint256)": {
        "encoding": "mapping",
        "key": "t_bytes32",
        "label": "mapping(bytes32 => uint256)",
        "numberOfBytes": "32",
        "value": "t_uint256"
      },
      "t_uint256": {
        "encoding": "inplace",
        "label": "uint256",
        "numberOfBytes": "32"
      }
    }
  }
}