{
  "address": "0xaC4F2B3BBBf69694592525d708B8f39334Fc6cF8",
  "abi": [
    {
      "inputs": [],
      "stateMutability": "nonpayable",
      "type": "constructor"
    },
    {
      "anonymous": false,
      "inputs": [
        {
          "indexed": false,
          "internalType": "address",
          "name": "singleton",
          "type": "address"
        }
      ],
      "name": "ChangedMasterCopy",
      "type": "event"
    },
    {
      "inputs": [],
      "name": "self",
      "outputs": [
        {
          "internalType": "address",
          "name": "",
          "type": "address"
        }
      ],
      "stateMutability": "view",
      "type": "function"
    },
    {
      "inputs": [
        {
          "internalType": "address",
          "name": "targetSingleton",
          "type": "address"
        }
      ],
      "name": "update",
      "outputs": [],
      "stateMutability": "nonpayable",
      "type": "function"
    }
  ],
  "transactionHash": "0xb277c7e006df3694e48cdfee9b62423ee586089399eae9ad5383125018053634",
  "args": [],
  "numDeployments": 1,
  "solcInputHash": "964188aa987aecf7dcb88a4dd59b2f9b",
  "bytecode": "0x60a060405234801561001057600080fd5b50306080526080516102f9610036600039600081816055015261015f01526102f96000f3fe608060405234801561001057600080fd5b50600436106100365760003560e01c80631c1b87721461003b5780637104ddb214610050575b600080fd5b61004e610049366004610286565b6100a0565b005b6100777f000000000000000000000000000000000000000000000000000000000000000081565b60405173ffffffffffffffffffffffffffffffffffffffff909116815260200160405180910390f35b73ffffffffffffffffffffffffffffffffffffffff8116610148576040517f08c379a000000000000000000000000000000000000000000000000000000000815260206004820152602260248201527f496e76616c69642073696e676c65746f6e20616464726573732070726f76696460448201527f656400000000000000000000000000000000000000000000000000000000000060648201526084015b60405180910390fd5b73ffffffffffffffffffffffffffffffffffffffff7f000000000000000000000000000000000000000000000000000000000000000016300361020d576040517f08c379a000000000000000000000000000000000000000000000000000000000815260206004820152603060248201527f4d6967726174696f6e2073686f756c64206f6e6c792062652063616c6c65642060448201527f7669612064656c656761746563616c6c00000000000000000000000000000000606482015260840161013f565b600080547fffffffffffffffffffffffff00000000000000000000000000000000000000001673ffffffffffffffffffffffffffffffffffffffff83169081179091556040519081527f75e41bc35ff1bf14d81d1d2f649c0084a0f974f9289c803ec9898eeec4c8d0b89060200160405180910390a150565b60006020828403121561029857600080fd5b813573ffffffffffffffffffffffffffffffffffffffff811681146102bc57600080fd5b939250505056fea26469706673582212202c703455c4dd28cd757280de2c29a06dcf337c6fd0f267bd32a872612def90ad64736f6c63430008110033",
  "devdoc": {
    "kind": "dev",
    "methods": {},
    "version": 1
  },
  "userdoc": {
    "kind": "user",
    "methods": {},
    "version": 1
  },
  "storageLayout": {
    "storage": [
      {
        "astId": 2153,
        "contract": "contracts/moonkey/UpdateSingleton.sol:UpdateSingleton",
        "label": "singleton",
        "offset": 0,
        "slot": "0",
        "type": "t_address"
      },
      {
        "astId": 2157,
        "contract": "contracts/moonkey/UpdateSingleton.sol:UpdateSingleton",
        "label": "modules",
        "offset": 0,
        "slot": "1",
        "type": "t_mapping(t_address,t_address)"
      },
      {
        "astId": 2161,
        "contract": "contracts/moonkey/UpdateSingleton.sol:UpdateSingleton",
        "label": "owners",
        "offset": 0,
        "slot": "2",
        "type": "t_mapping(t_address,t_address)"
      },
      {
        "astId": 2163,
        "contract": "contracts/moonkey/UpdateSingleton.sol:UpdateSingleton",
        "label": "ownerCount",
        "offset": 0,
        "slot": "3",
        "type": "t_uint256"
      },
      {
        "astId": 2165,
        "contract": "contracts/moonkey/UpdateSingleton.sol:UpdateSingleton",
        "label": "threshold",
        "offset": 0,
        "slot": "4",
        "type": "t_uint256"
      },
      {
        "astId": 2167,
        "contract": "contracts/moonkey/UpdateSingleton.sol:UpdateSingleton",
        "label": "nonce",
        "offset": 0,
        "slot": "5",
        "type": "t_bytes32"
      },
      {
        "astId": 2169,
        "contract": "contracts/moonkey/UpdateSingleton.sol:UpdateSingleton",
        "label": "domainSeparator",
        "offset": 0,
        "slot": "6",
        "type": "t_bytes32"
      },
      {
        "astId": 2173,
        "contract": "contracts/moonkey/UpdateSingleton.sol:UpdateSingleton",
        "label": "signedMessages",
        "offset": 0,
        "slot": "7",
        "type": "t_mapping(t_bytes32,t_uint256)"
      },
      {
        "astId": 2179,
        "contract": "contracts/moonkey/UpdateSingleton.sol:UpdateSingleton",
        "label": "approvedHashes",
        "offset": 0,
        "slot": "8",
        "type": "t_mapping(t_address,t_mapping(t_bytes32,t_uint256))"
      },
      {
        "astId": 10528,
        "contract": "contracts/moonkey/UpdateSingleton.sol:UpdateSingleton",
        "label": "guard",
        "offset": 0,
        "slot": "9",
        "type": "t_bytes32"
      }
    ],
    "types": {
      "t_address": {
        "encoding": "inplace",
        "label": "address",
        "numberOfBytes": "20"
      },
      "t_bytes32": {
        "encoding": "inplace",
        "label": "bytes32",
        "numberOfBytes": "32"
      },
      "t_mapping(t_address,t_address)": {
        "encoding": "mapping",
        "key": "t_address",
        "label": "mapping(address => address)",
        "numberOfBytes": "32",
        "value": "t_address"
      },
      "t_mapping(t_address,t_mapping(t_bytes32,t_uint256))": {
        "encoding": "mapping",
        "key": "t_address",
        "label": "mapping(address => mapping(bytes32 => uint256))",
        "numberOfBytes": "32",
        "value": "t_mapping(t_bytes32,t_uint256)"
      },
      "t_mapping(t_bytes32,t_uint256)": {
        "encoding": "mapping",
        "key": "t_bytes32",
        "label": "mapping(bytes32 => uint256)",
        "numberOfBytes": "32",
        "value": "t_uint256"
      },
      "t_uint256": {
        "encoding": "inplace",
        "label": "uint256",
        "numberOfBytes": "32"
      }
    }
  }
}